:020000040800F2
:10000000101500201D210008790200087B0200085D
:100010007F02000883020008870200080000000039
:100020000000000000000000000000008B0200083B
:100030008D020008000000008F02000891020008F5
:100040003721000837210008372100083721000830
:100050003721000837210008372100083721000820
:100060003721000837210008372100083721000810
:100070003721000837210008372100083721000800
:1000800037210008372100083721000837210008F0
:1000900093020008372100083721000837210008A3
:1000A00037210008372100083721000837210008D0
:1000B00037210008372100083721000837210008C0
:1000C00037210008372100083721000837210008B0
:1000D000372100089B02000837210008372100085B
:1000E0003721000837210008BF0200083721000827
:1000F0003721000837210008372100083721000880
:10010000372100083721000837210008372100086F
:10011000372100083721000837210008372100085F
:10012000372100083721000837210008372100084F
:1001300000F002F800F05AF80AA090E8000C82449F
:100140008344AAF10107DA4501D100F04FF8AFF27C
:10015000090EBAE80F0013F0010F18BFFB1A43F0A5
:100160000103184700380000203800000A444FF00F
:10017000000C10F8013B13F0070408BF10F8014B06
:100180001D1108BF10F8015B641E05D010F8016B4B
:10019000641E01F8016BF9D113F0080F1EBF10F8AF
:1001A000014BAD1C0C1B09D16D1E58BF01F801CBD2
:1001B000FAD505E014F8016B01F8016B6D1EF9D555
:1001C0009142D6D37047000000230024002500266A
:1001D000103A28BF78C1FBD8520728BF30C148BFAA
:1001E0000B6070471FB51FBD10B510BD03F02CFB91
:1001F0001146FFF7F7FF00F01BF803F04AFB03B4CA
:10020000FFF7F2FF03BC03F04FFB70B505460C4649
:100210003F2C00DD3F242246C021284602F0AEFEDE
:100220002146012003F0DCF8012002F081FF70BDBF
:1002300000F002F800BFFEE710B500F085FF0124D2
:1002400008E0012000F04BF800F03AFF00F064FFF6
:10025000601C84B2642CF4DD00200649088000F0A4
:10026000D8F800F0F1F802F0F3FC642000F094F804
:1002700010BD0000E4040020704700BFFEE700BF8F
:10028000FEE700BFFEE700BFFEE77047704770471C
:10029000704710B500F0E4FB10BD10B540F22551D9
:1002A0000A4801F013FE08B100F0F1F908210748EF
:1002B00001F0F6FD10B1054801F088FD10BD10B544
:1002C0004FF4802001F039FC10BD000000380140DF
:1002D000704700BF411EC9B20800FBD17047002122
:1002E00000BF082100BF4A1ED2B21100FBD1421E3E
:1002F000D2B21000F5D17047002100BF0F2100BF1E
:100300004A1ED2B21100FBD1421E92B21000F5D1AA
:10031000704700BF072100BF0B2200BF531E9BB2D6
:100320001A00FBD14B1E9BB21900F5D1431EDBB264
:100330001800EFD1704700BF422100BF1E2200BF4E
:10034000531EDBB21A00FBD14B1EDBB21900F5D1F4
:10035000431EDBB21800EFD17047652000BF582163
:1003600000BF4A1E92B21100FBD1421E92B2100091
:10037000F5D1704700BF772100BF432200BF531E55
:100380009BB21A00FBD14B1E9BB21900F5D1431E44
:10039000DBB21800EFD1704700BF40F2712100BFFF
:1003A0003F2200BF531E9BB21A00FBD14B1E9BB2D3
:1003B0001900F5D1431EDBB21800EED1704700BF23
:1003C0004FF47A7100BF40F2012200BF531E9BB26E
:1003D0001A00FBD14B1E9BB21900F4D1431EDBB2B5
:1003E0001800EDD1704700E0401E0028FCD1704796
:1003F00010B54FF4802001F0A0FB4FF48020D149CC
:1004000008600820487101208871084601F01EFB31
:1004100010BD10B5002001F05BF80121C80501F006
:1004200000F910BD0320C8490860704710B5C74CDB
:10043000A07A18B10520C449086002E00120C24931
:10044000086001F0EBFD10BD08B54FF4A06000F0AE
:1004500007FF14208DF8000002208DF80100002015
:100460008DF8020001208DF80300684600F0FDFEC3
:100470002A208DF8000000208DF80100684600F069
:10048000F4FE25208DF8000001208DF8010068465B
:1004900000F0EBFE08BD10B504462CB14FF400711E
:1004A000AB4801F026FA04E04FF40071A84801F0CF
:1004B0001EFA10BD10B54FF41650A6490860002072
:1004C0008880C8804FF4C0600881002088810C209B
:1004D0004881002001F07DFB012240F225519E4819
:1004E00001F00FFC10BD10B59C48007920B1012827
:1004F00006D002280ED108E000209649C8800DE001
:100500004FF440509349C88008E04FF4005091499F
:10051000C88003E0FFF7CEFF002010BD00BF8F486A
:10052000407920B1012806D002280ED108E0002031
:10053000884908810DE04FF480608649088108E011
:100540004FF4C0608349088103E0FFF7B3FF002048
:10055000E3E700BF81488079072802D0082810D13E
:1005600003E000207B4988800FE07A48008918B9B1
:1005700000207849888003E04FF4805075498880D6
:1005800003E0FFF797FF0020C7E700BF734800684C
:1005900070490860002088810C204881002001F00B
:1005A00018FB0120B9E770B505460E4600240BE0A4
:1005B000295D694801F006FC00BF8021664801F012
:1005C0006FFC0028F9D0641CB442F1D370BD70B543
:1005D00063480078012858D062480068B0F5006F81
:1005E00002D100205F4908605E4800685E490968E2
:1005F000884203D100205A49087070BD59480068EC
:1006000059490968884206D956480068C0F5006013
:100610005649086006E05448006852490968401A83
:10062000524908605148006840280ED94D4800885A
:1006300085B240244B48006840304A4908604B4826
:1006400000684038494908600FE04648008885B294
:100650004648008884B24348006844490968084411
:100660004049086000204149086001203C49087069
:100670003F4948192246C02102F080FC2146012052
:1006800002F0AEFE012002F053FD00BFB5E710B549
:1006900032488079072809D12F4801F097FB00F0F4
:1006A0007F003349304A126888540AE02B48807929
:1006B000082806D1284801F089FB2D492A4A1268EA
:1006C000885429480068401C27490860084600688B
:1006D000B0F5006F01D10020086010BD30B50B46A9
:1006E000002100BF16E00A24B4EB107F05D93024A6
:1006F00004EB107403F8114005E0412404EB10747E
:100700000A3C03F81140000100254C00641C1D55F3
:100710004C1CE1B29142E6DB30BD70B5154804686F
:10072000001D0568001D0668344454B108221249B2
:100730002046FFF7D3FF04220F4910312846FFF768
:10074000CDFF70BD10000020CC050020900E0020D1
:100750000014014020060020003801403C05002024
:100760000C000020040000200000002008000020F1
:1007700030060020E8F7FF1F1A00002070B5AB48D4
:100780000078012836D1AA48006818B90020A74986
:1007900008702FE0A648006840280ED9A5480088B8
:1007A00085B24024A34800684030A2490860A048B0
:1007B000006840389E4908600FE09E48008885B276
:1007C0009B48008884B29B4800689949096808449E
:1007D00098490860002096490860974948192246C0
:1007E000C02102F0CBFB2146012002F0F9FD0120DF
:1007F00002F09EFC70BD002190480078302804D1A2
:100800008E484078302800D102E04FF0FF3070472A
:1008100001EB8100410089488078312805D1874863
:10082000C078312801D1491C0BE0844880783028F9
:1008300004D18248C078302800D102E04FF0FF3068
:10084000E5E70846E3E710B50446B4F5957F36DAE8
:10085000002C34DD00207A49088008E000F030FCEC
:1008600000F05AFC76480088401C7549088074489E
:1008700000886428F2DB00207149088006E000F05F
:1008800009FC6F480088401C6D4908806D4830F8AD
:1008900014006B4909888842F1DC0020684908800F
:1008A00006E000F023FC66480088401C644908808C
:1008B000654830F81400624909888842F1DC10BDAF
:1008C00070B5044600220A2094FBF0F600FB1640A7
:1008D0003030885408E0501C82B20A2094FBF0F6B5
:1008E00000FB1640303088540A2094FBF0F080B2B0
:1008F0000400F0D10026501C0E54002307E0CD5C0C
:10090000D01A085CC854D01A0D54581C83B2501C1D
:1009100000EBD076B3EB660FF1DB084670BD4521E6
:1009200001707221417081706F21C170722101715B
:100930000021417170470146002004E0421C90B242
:10094000802800DB02E00A5C002AF7D100BF704774
:1009500030B5A1B0802101A802F04CFF3749032037
:1009600002F02DFF84B22CB10120384908703848BC
:10097000048002E0002035490870344800780028DF
:100980003CD0FFF738FFA8B1012826D131480088B4
:10099000B0F5957F0ADA2F480088401C2D49088061
:1009A00001A92C480088FFF78BFF02E001A8FFF7A0
:1009B000B6FF16E02748008800280ADD2548008891
:1009C000401E2449088001A922480088FFF778FFCB
:1009D00002E001A8FFF7A3FF03E001A8FFF79FFFD4
:1009E00000BF00BF1B480088FFF72DFF01A8FFF7DD
:1009F000A2FFC5B2294601A8FFF707FC032002F0B9
:100A0000ACFB21B030BD10B51348006805280CD1EF
:100A1000124801680068401C104A1060052904D182
:100A2000002011460860FFF7D2FD10BD0C00002029
:100A3000080000200400002030060020300E0020B6
:100A4000EA0400203400002088020020E604002090
:100A5000E8040020E4040020CC050020E00400208D
:100A600010B588B0002466480068664908800846CA
:100A7000008800F400706449098808420AD04FF6E3
:100A8000FF505F49086061480078401C5F4908706A
:100A9000FFF7B9FF5B48008800F400405A49098815
:100AA000084201D002F0F2F85648008800F4806055
:100AB00055490988084206D04FF6FF305049086072
:100AC0005349486880474F48008800F400504E4919
:100AD0000988084203D04DF6FF704949086049482B
:100AE000008800F4805048490988084206D04EF634
:100AF000FF7043490860002000F05CFA414800881C
:100B000000F400604049098808420CD04148007850
:100B100010B100F0D0F902E0022000F04BFA4FF2E1
:100B2000FF70374908603748008800F48070364904
:100B30000988084261D04FF6FF6031490860081DFE
:100B4000006810F4004F52D033480068401C32490E
:100B500008600846006803284CD92948001F00682F
:100B600010F0080F46D12648001F006880B22B49BC
:100B70000860002407E02248443850F8240080B27E
:100B80004DF82400641C082CF5D32448006840F07C
:100B90000100224908600846006880B21849091F10
:100BA00008601E48006820F001001C4908600846E3
:100BB000006880B21249091F086000BF1048006831
:100BC00010F4806FFAD04FF6FF300D490860002412
:100BD00007E05DF8240080B20949443941F8240057
:100BE000641C082CF5D300200B49086002E00020AB
:100BF00009490860072000F0DDF908B010BD0000C9
:100C0000445C00403405002016060020F00400205B
:100C100048050020D0050020F4040020F80400203E
:100C200010B5FFF77AFD002084490968887200F04A
:100C300019F902F09FFDFFF73DFC00208049086094
:100C400010BD10B500207D49096888727D48C079C3
:100C50007A4909684872002078490968C87202F028
:100C6000D9F94FF40071002002F0ECF910210020B6
:100C700002F0FDF94021002002F088FB80210020D5
:100C800002F077FB002002F09DFA6F4890F82C10DC
:100C9000002002F0C7FB002002F05FFA00210120D3
:100CA00002F0D0F9C021012002F063FB20210120D5
:100CB00002F0DDF90021012002F0F5F94FF4C061E6
:100CC000022002F0BFF94FF48071022002F051FBC4
:100CD0000021022002F0E7F92021022002F0C7F9EA
:100CE0000021032002F0AEF94FF48871032002F0D6
:100CF0004DFB4021032002F095FB4FF440510320AF
:100D000002F0D1F90021032002F0B1F9002001F036
:100D100015FF01204A49086010BD4C48817A11B185
:100D20000521474A11607047042045490860704713
:100D300010B547480078202804D1FFF7D4FB0020E5
:100D40004349087010BD7047014629B908203B4A45
:100D500012681082002070473E48FCE7014629B91E
:100D60000820364A12681082002070473948FCE794
:100D700070B504460025212C09D130480068007860
:100D800000F07F00212810D1AFF22F050DE0202CBC
:100D90000BD12A480068007800F07F00212801D19B
:100DA000AFF25B0520202A4908700DB9022070BD02
:100DB00022480068856100212048006841820020A7
:100DC000A8470020F3E701461C480068007800F0BF
:100DD0007F00212807D1022901D100207047222954
:100DE00001D10020FAE70220F8E710B504461A49BD
:100DF000204601F093FB10BD10B50446174920466C
:100E000001F08CFB10BD70B505460C480068C47835
:100E1000042C01DD002070BD114800EBC401284600
:100E200001F07CFBF7E70246002901DD0220704754
:100E3000012A01DD0220FAE70020F8E70C06002075
:100E4000CC050020C838000848050020900E00207E
:100E5000380500203C0500209C050020A40500204A
:100E6000AC05002010B50120FFF715FB01248248D6
:100E70000460002081490880084600887E49086097
:100E80000020091D08604FF4E0507C4908800846A6
:100E9000008879490860002010BD10B5012076490E
:100EA00008600020091D0860FFF7F5FA0320724969
:100EB0000860002010BD30B50021002200236E4CD8
:100EC0002468A0B200BF08E06B4C403C54F82140BD
:100ED000A4B26B4D45F82140491C0829F4D340F4D5
:100EE0008060654C206040F00100206020F001002F
:100EF000206000BF604C241D246814F4806FF9D07A
:100F00004FF6FF345C4D2D1D2C60002108E05C4C39
:100F100054F82140A4B2584D403D45F82140491CA9
:100F20000829F4D340F00800534C20602468A0B294
:100F300040F00400504C2060524C2368226822F09C
:100F4000030242F0010222604F4C246844F0040482
:100F50004D4D2C60484C241D246814F4805F05D14D
:100F60002C46246824F004042C6013E04EF6FF7431
:100F7000414D2D1D2C602C1F2468A0B220F00800CC
:100F80002C1F20603F4C23603F4C246824F0040455
:100F90003D4D2C6030BD10B53748006884B224F058
:100FA000040435480460FFF741FA4FF43F403249EA
:100FB000086010BD70B50546072D01D03348057097
:100FC0003248007808284ED2DFE800F004111A20D9
:100FD0002B384E4F2E48006828B9FFF7DCFF06205B
:100FE0002A49087002E005202849087041E0FFF70F
:100FF000D2FF04202549087001202549086038E007
:101000000220224948700320087032E01F484078CF
:10101000401E1E4948700846407808B904200870F0
:1010200027E01548006884B244F0100412480460B8
:101030000520164908700A2048701AE013484078C5
:10104000401E124948700846407858B90A4800685E
:1010500084B224F0100408480460062008700020C0
:101060000B49086005E000BF00BF06200749087073
:1010700000BF00BF70BD0000405C004016060020AD
:10108000700E00200070004010ED00E0D805002038
:10109000D405002010B510212A4800F02AFC0121B7
:1010A000284800F026FC0421264800F020FC0421FA
:1010B000244800F01EFC1021224800F018FC10BD4E
:1010C00010B510211F4800F014FC01211D4800F04C
:1010D0000EFC04211B4800F00AFC0421194800F012
:1010E00008FC1021174800F002FC10BD10B52021AB
:1010F000144800F0FEFB0221124800F0FAFB082120
:10110000104800F0F4FB08210E4800F0F2FB20210B
:101110000C4800F0ECFB10BD10B52021094800F090
:10112000E8FB0221074800F0E2FB0821054800F037
:10113000DEFB0821034800F0DCFB2021014800F021
:10114000D6FB10BD001001401CB500240121102069
:1011500000F05AFA0121042000F056FA3F20ADF8C1
:10116000040003208DF8060010208DF8070001A967
:10117000394800F011FB0121374800F0B8FB02218B
:10118000354800F0B4FB0421334800F0B0FB0821DF
:10119000314800F0ACFB10212F4800F0A8FB2021C3
:1011A0002D4800F0A4FB40F2FF70ADF800000320D2
:1011B0008DF8020010208DF803006946274800F0E2
:1011C000EBFA00BF45E00B2C41D2DFE804F0060B40
:1011D00010151A1F24292E343A0001211F4800F04F
:1011E00088FB00BF02211D4800F083FB00BF0421E3
:1011F0001A4800F07EFB00BF0821184800F079FB78
:1012000000BF1021154800F074FB00BF20211348D7
:1012100000F06FFB00BF4021104800F06AFB00BFE8
:1012200080210E4800F065FB00BF4FF480710B4831
:1012300000F05FFB00BF4FF40071084800F059FB5D
:1012400000BF4FF48061054800F053FB00BF00BFB2
:10125000641C0A2CB7DD1CBD0010014000080140D1
:1012600031490143314A1160704770B500210023B4
:101270000F22C4780CB32D4C246804F4E064C4F548
:10128000E064210AC1F10403CA40447804FA03F17E
:101290008478144021430901254C0678A15504782F
:1012A00004F01F050124AC4005786D114FF0E026D5
:1012B00006EB8505C5F8004109E0047804F01F0538
:1012C0000124AC401B4D0678761145F8264070BDD0
:1012D000194A0A400243154B1B1F1A60704739B167
:1012E000124A121D12680243104B1B1D1A6006E0C1
:1012F0000E4A121D126882430C4B1B1D1A60704768
:10130000042808D14FF0E021096941F004014FF0B1
:10131000E022116107E04FF0E021096921F00401AA
:101320004FF0E022116170470000FA050CED00E07B
:1013300000E400E080E100E080FFFF1FDB48006880
:1013400040F00100D949086008464068D849084083
:10135000D649486008460068D6490840D349086025
:101360000846006820F4802008600846406820F4A1
:10137000FE0048604FF41F0088607047CB49096841
:1013800021F48031C94A11601146096821F4802195
:101390001160B0F5803F03D0B0F5802F0ED106E08C
:1013A000C249096841F48031C04A116007E0BF4971
:1013B000096841F4A021BD4A116000E000BF00BFF0
:1013C000704710B501460022002300204A11012A6F
:1013D00002D1B64C236806E0022A02D1B34C236A3C
:1013E00001E0B24C636A01F01F02012494401C42E8
:1013F00001D0012000E0002010BD70B500240025C0
:10140000002600BF3120FFF7DCFF0646641CB4F560
:10141000A06F01D0002EF5D03120FFF7D2FF08B128
:10142000012500E00025284670BD014600209F4AA6
:10143000106820F0F80040EAC100106070479E4933
:101440000860704702460020984B586820F47C10D2
:1014500042EA01031843954B586070479649086665
:10146000704701460020914A506820F0030008436D
:10147000506070478D48406800F00C00704701468E
:1014800000208A4A506820F0F000084350607047FE
:1014900001460020854A506820F4E060084350600F
:1014A000704701460020814A506820F4605040EAAD
:1014B000C1005060704729B17C4A527A02437B4B8D
:1014C0005A7204E0794A527A8243784B5A727047D2
:1014D0007A490860704701460020744A506820F439
:1014E00040400843506070470021754A11706F4AB0
:1014F00082F82010012802D0042808D103E001213D
:101500006F4A117004E005216D4A117000E000BFC0
:1015100000BF70476B49086070476449096A01431E
:10152000624A11627047674944390860704730B5B4
:1015300000210022002400235C4D6D6805F00C01A1
:1015400021B1042905D0082923D105E05E4D0560AD
:1015500022E05D4D05601FE0544D6D6805F470128A
:10156000524D6D6805F48034022505EB92421CB99A
:10157000564D554305600BE04C4D6D6815F4003F2A
:1015800003D0524D5543056002E04F4D5543056071
:1015900002E04D4D056000BF00BF444D6D6805F091
:1015A000F00109094A4D6B5C0568DD4045603F4D1F
:1015B0006D6805F4E061090A454D6B5C4568DD40E6
:1015C00085603A4D6D6805F46051C90A404D6B5C09
:1015D0004568DD40C560354D6D6805F44041890BB7
:1015E0003C4D6B5CC568B5FBF3F5056130BD29B1B9
:1015F0002E4A526902432D4B5A6104E02B4A52692C
:1016000082432A4B5A61704729B1284A92690243A2
:10161000264B9A6104E0254A92698243234B9A61E2
:10162000704729B1214AD2690243204BDA6104E0B4
:101630001E4AD26982431D4BDA61704729B11B4AA9
:10164000D2680243194BDA6004E0184AD268824338
:10165000164BDA60704729B1144A12690243134BE2
:101660001A6104E0114A12698243104B1A617047F3
:1016700014494039086070470F49C86470470B49E6
:10168000C87170470948406A40F080700749486255
:10169000704701460020054A92680A4201D00120A5
:1016A00000E0002070470149887270470010024036
:1016B0000000FFF8FFFFF6FE00004242D800424261
:1016C000201002408004424200127A0000093D00CE
:1016D000DA050020EA05002010B50446CA48844215
:1016E00008D101210420FFF7A9FF00210420FFF702
:1016F000A5FF46E0C548844208D101210820FFF734
:101700009DFF00210820FFF799FF3AE0C04884427E
:1017100008D101211020FFF791FF00211020FFF7D1
:101720008DFF2EE0BB48844208D101212020FFF725
:1017300085FF00212020FFF781FF22E0B648844288
:1017400008D101214020FFF779FF00214020FFF759
:1017500075FF16E0B148844208D101218020FFF7CF
:101760006DFF00218020FFF769FF0AE0AC4884424A
:1017700007D101218015FFF761FF0021A015FFF7B8
:101780005DFF10BD10B501210846FFF757FF00218E
:101790000120FFF753FF10BD2DE9F041024600255F
:1017A0000026002000230024002791F803C00CF03D
:1017B0000F0591F803C01CF0100F03D091F802C080
:1017C0004CEA050591F800C0BCF1000F31D0146857
:1017D00000202BE04FF0010C0CFA00F3B1F800C030
:1017E0000CEA03069E4220D183004FF00F0C0CFA46
:1017F00003F7BC4305FA03FC4CEA040491F803C068
:10180000BCF1280F06D14FF0010C0CFA00FCC2F815
:1018100014C00AE091F803C0BCF1480F05D14FF0A5
:10182000010C0CFA00FCC2F810C0401C0828D1D3EF
:101830001460B1F800C0BCF1FF0F34DD5468002023
:101840002EE000F1080C4FF0010808FA0CF3B1F893
:1018500000C00CEA03069E4221D183004FF00F0C1A
:101860000CFA03F7BC4305FA03FC4CEA040491F8B4
:1018700003C0BCF1280F05D100F1080C08FA0CF8E0
:10188000C2F8148091F803C0BCF1480F07D100F1F1
:10189000080C4FF0010808FA0CF8C2F81080401C40
:1018A0000828CED35460BDE8F0814FF6FF71018067
:1018B000022181700421C1707047024600209368A4
:1018C0000B4201D0012000E00020704701468868EB
:1018D00080B2704702460020D3680B4201D001203D
:1018E00000E0002070470146C86880B2704701617F
:1018F0007047416170470AB1016100E04161704782
:10190000C16070474FF480320A4382618161826115
:1019100082698269704702460020424B18684FF680
:101920008073184040EA021008433E4B186070472D
:101930003D49C8617047F0B50A46002300240021E4
:10194000002500F00046B6F1004F02D1354EF16996
:1019500001E0344E7168C0F3034583B200F44016D1
:10196000B6F5401F08D121F070612E4E766826F042
:1019700070662C4F7E6012E000F48016B6F5801F72
:1019800006D1032606FA05F4A14341F0706106E092
:10199000460D360103FA06F6B14341F0706122B1FB
:1019A000460D360103FA06F6314300F00046B6F163
:1019B000004F02D11B4EF16101E01A4E7160F0BD83
:1019C00030B500228B071C0F0F2303FA04F2154BCE
:1019D00008338C1053F824309343124C08348D1084
:1019E00044F8253023468C1053F824308C07240FFC
:1019F00000FA04F423430B4C08348D1044F82530CE
:101A000030BD0A490860704700080140000C0140E1
:101A1000001001400014014000180140001C01406A
:101A2000002001400000014000002042DC00204274
:101A3000002044490860091D0860091D0860091D4F
:101A4000086041483F4914310860704700213D4912
:101A50008279002A3AD00A46126803689A430B46F4
:101A60001A600A1D126803689A430B1D1A600279F6
:101A700011440A6803681A430A60324A083212683D
:101A800003689A432F4B08331A601A1D12680368C3
:101A90009A432C4B0C331A604279102A0ED11A1F2C
:101AA000126803681A43274B08331A601A1D12681C
:101AB00003681A43234B0C331A600DE02149427925
:101AC00011440A6803681A430A6005E00279114468
:101AD0000A6803689A430A60704700210160017137
:101AE0000C2141710021817170471649103109683C
:101AF0000143144A10321160704701460020114A18
:101B0000143212680A4201D0012000E00020704720
:101B10000C49143108607047014600200022094B2F
:101B20001B6803EA0102074B14331B680B4202D007
:101B30000AB1012000E0002070470249143108601A
:101B40007047000000040140FFFF0F0010B504467D
:101B5000FB48844209D101218803FFF76FFD002172
:101B60004FF48040FFF76AFD32E0F648844209D125
:101B700001214804FFF76FFD00214FF40030FFF70B
:101B80006AFD25E0F048844209D101218804FFF76D
:101B900062FD00214FF48020FFF75DFD18E0EB4867
:101BA000844209D10121C804FFF755FD00214FF4FB
:101BB0000020FFF750FD0BE0E548844208D10121E9
:101BC0000805FFF748FD00214FF48010FFF743FDA3
:101BD00010BD2DE9F04786B005460E460024A2460A
:101BE00000BFA1460027B08900B100BF2F462C8A54
:101BF0004CF6FF700440F08804432C82AC894EF60A
:101C0000F3100440B08831890843718908430443C4
:101C1000AC81AC8A4FF6FF400440B0890443AC82EB
:101C200001A8FFF784FCC648874202D1DDF810A066
:101C300001E0DDF80CA0A88910F4004F08D00AEBF1
:101C4000CA0000EB0A1031684900B0FBF1F807E068
:101C50000AEBCA0000EB0A1031688900B0FBF1F80A
:101C60006420B8FBF0F004012009642101FB108915
:101C7000A88910F4004F08D0322000EBC900B0FB57
:101C8000F1F000F00700044308E0322000EB0910F7
:101C90006421B0FBF1F000F00F0004432C8106B08A
:101CA000BDE8F0874FF41651016000218180C180AA
:101CB00001810C21418100218181704710B50246CC
:101CC0000020108A4FF2FF0318400B884C882343F2
:101CD0008C882343CC8823431843108210BD0021F5
:101CE000018041808180C180704721B1828942F4A6
:101CF0000052828104E082894DF6FF731A4082818E
:101D00007047F0B503460024002600250020A1F509
:101D100010676A3F00D100BF1846C1F3421401F0BA
:101D20001F06012707FA06F5012C01D10C3004E04B
:101D3000022C01D1103000E014301AB107682F4393
:101D4000076002E00768AF430760F0BD1AB1838AFD
:101D50000B43838202E0838A8B4383827047028A2B
:101D60004FF6F0731A400282028A0A4302827047D9
:101D700082894FF2FF731A40828182890A438281ED
:101D8000704721B1828942F00202828104E0828997
:101D90004FF6FD731A4082817047028A4FF6DF7357
:101DA0001A400282028A0A430282704721B1028AE3
:101DB00042F48042028204E0028A4BF6FF731A402A
:101DC00002827047C1F3080282807047014688880A
:101DD000C0F308007047818941F00101818170479B
:101DE000028BD2B20283028B42EA01220283704745
:101DF000028B02F47F420283028B0A430283704704
:101E000021B1828A42F02002828204E0828A4FF667
:101E1000DF731A408282704721B1828A42F0100239
:101E2000828204E0828A4FF6EF731A408282704702
:101E300021B1828A42F00802828204E0828A4FF64F
:101E4000F7731A408282704721B1828942F40042BE
:101E5000828103E08289C2F30E028281704721B140
:101E6000828A42F40062828204E0828A4FF2FF7327
:101E70001A4082827047828A4FF6FB731A40828230
:101E8000828A0A438282704721B1828A42F002022A
:101E9000828204E0828A4FF6FD731A408282704784
:101EA00002460020B1F5007F00D100BF13880B422D
:101EB00001D0012000E00020704701F40072B2F56B
:101EC000007F00D100BFCA430280704770B5024650
:101ED0000024002300250020A1F510666A3E00D1F1
:101EE00000BFC1F3421501F01F03012606FA03F3F8
:101EF000012D02D19689334006E0022D02D1168AC7
:101F0000334001E0968A33400C12012606FA04F4AD
:101F10001688344013B10CB1012000E0002070BDE0
:101F200010B500220023A1F510646A3C00D100BF67
:101F30000A1201249440A3B2DC43048010BD0000C7
:101F4000003801400044004000480040004C004080
:101F50000050004000210020674A126842F480329D
:101F6000654B1A6000BF644A126802F40030491CD5
:101F700010B9B1F5A06FF6D15F4A126812F4003FB4
:101F800001D0012000E00020012842D15B4A126804
:101F900042F01002594B1A601A46126822F00302EE
:101FA0001A601A46126842F002021A60524A5268D7
:101FB000514B5A601A4652685A601A46526842F4A7
:101FC00080625A601A46526822F47C125A601A469D
:101FD000526842F4E8125A601A46126842F080725F
:101FE0001A6000BF444A126812F0007FFAD0424AD9
:101FF000526822F00302404B5A601A46526842F07F
:1020000002025A6000BF3C4A526802F00C02082AE1
:10201000F9D1704710B5FFF79DFF10BD10B53648D8
:10202000006840F0010034490860084640683449BF
:1020300008403149486008460068324908402E4946
:1020400008600846006820F4802008600846406860
:1020500020F4FE0048604FF41F008860FFF7DAFFAD
:102060004FF000602849086010BD10B50021002025
:102070000022214B5B6803F00C0121B1042906D03A
:10208000082928D107E0214B214C236027E01F4B72
:102090001F4C236023E0184B5B6803F47010164B51
:1020A0005B6803F48032022303EB904022B9194BA2
:1020B0004343174C23600DE00F4B5B6813F4003F64
:1020C00004D0144B4343124C236003E00F4B4343B3
:1020D0000F4C236003E00D4B0D4C236000BF00BF8D
:1020E000054B5B68C3F303130B4CE15C084B1B68A7
:1020F000CB40074C236010BD00100240002002407E
:102100000000FFF8FFFFF6FE08ED00E000127A0085
:10211000F005002000093D00F40500200948804733
:1021200009480047FEE7FEE7FEE7FEE7FEE7FEE7B9
:10213000FEE7FEE7FEE7FEE704480549054A064BD1
:10214000704700001D20000831010008100F00201A
:1021500010150020101100201011002010B50446A9
:102160002CB90120FE4909680882002010BDFD49F4
:10217000096808688047FA4800680A30F6E710B531
:10218000F7480068C078F8494978884213DCF44879
:102190000068807878B9F2480068808858B9F048BB
:1021A0000068C078EE4909688872EE490968486895
:1021B0008047002010BD0220FCE710B504462CB972
:1021C0000120E74909680882002010BDE549096837
:1021D00088688047E24800680C30F6E710B5E04BAD
:1021E0001B68D978DE4B1B685879E04B1B689A69ED
:1021F00090470446DA480068807AE8B13CB9D8488C
:102200000068007918B9D6480068807808B10220C3
:1022100010BD8CB9D3490968C8688047D0480068A8
:102220004079CF490968C872CD480068C078CC4968
:10223000096808730020EBE70220E9E710B50446BF
:102240002CB90220C64909680882002010BD002070
:10225000C7490880C2480068007810F07F0F23D17A
:10226000BF490968487A10F0200F06D0C0490978A4
:1022700041F00201BE4A117005E0BD49097801F044
:10228000FD01BB4A117010F0400F06D0B849097823
:1022900041F00101B64A117005E0B549097801F035
:1022A000FE01B34A117036E0AD480068007800F0D6
:1022B0007F00012801D1AE48C8E7A948006800782E
:1022C00000F07F00022824D1A54A1268517901F05C
:1022D0000F0011F0800F0DD0A64A52F8202002F016
:1022E0003002102A14D1A24A127842F00102A04B07
:1022F0001A700DE09F4A52F8202002F44052B2F5C5
:10230000805F05D19A4A127842F00102984B1A7008
:1023100001E000209AE793490968086980479448DA
:1023200094E72DE9F0478E480068007800F07F08B8
:10233000B8F1000F0AD18A480068407A00F0DF0047
:102340008749096848720020BDE8F087B8F1020F9C
:102350007ED183480068408818B9814800680079B8
:1023600008B10220F0E7DFF800927D480068477965
:1023700027F080052C467A480068407910F0800FDD
:1023800005D07C4850F8240000F0300604E079487D
:1023900050F8240000F4405699F80000A84204D9EF
:1023A0001EB16F480068807A08B90220CCE717F0A8
:1023B000800F0ED06F4850F8240000F03000102835
:1023C0003FD1E0B200F0A7FFE0B2302100F04FFEB5
:1023D00037E0684850F8240000F44050B0F5805FC2
:1023E0002FD1C4B9644A92F82C10E0B201F01AF867
:1023F000604951F824104BF68F7201EA020080F414
:10240000805080F4005040F4004141F08001594A6E
:1024100042F8241015E0E0B200F067FF554951F88A
:1024200024104BF68F7201EA020080F4805080F491
:10243000005040F4004141F080014E4A42F824101F
:1024400000BF484909684869804700207CE7FFE7EA
:1024500000BF022078E72DE9F04141480068467945
:1024600026F080073C463E480068407910F0800F17
:1024700005D0404850F8240000F0300504E03D4805
:1024800050F8240000F4405537480078A04208D99D
:1024900033480068408820B91DB131480068807A0F
:1024A00010B90220BDE8F08116F0800F10D031493C
:1024B00051F8241048F6BF7201EA020080F01000C3
:1024C00040F4004141F080012A4A42F8241010E013
:1024D000284951F824104BF68F7201EA020080F46B
:1024E000805040F4004141F08001224A42F824101B
:1024F00000BF1C490968886980470020D2E710B5F1
:1025000017480068407A40F0200015490968487271
:1025100014490968C8698047002010BD10B50246FB
:102520000F480068438A32B98888C01A0C4C246866
:102530002082002010BD08681844FBE72DE9F04117
:102540000748006800F110042688A06838B336B345
:10255000A588B54200D93546A8B2A16888470DE0E4
:102560000C0600201806002044050020100600205C
:1025700006060020005C0040480500200746208831
:10258000401B2080608828446080002000F01CFFF1
:102590008046AAB24146384600F00AFD00BF2088B6
:1025A00050B14FF44050FA4908800021084600F02D
:1025B00017FF3020F74908802088A188884204DB73
:1025C0000320F5490968087218E02088002804DD16
:1025D0000520F1490968087210E0208870B90620CA
:1025E000ED49096808720021EC48006880B2801C3F
:1025F000EB4A42F810103020E6490880BDE8F0812F
:102600002DE9F047E448006800F110052E88E24803
:102610000068077AD6B9042F18D1E248007801285B
:102620000FD10021DD48006880B2801CDC4A42F8EE
:1026300010103020D749088000BF0020D949087009
:1026400003E007271020D349088027E0AC88A64282
:1026500001D8042000E002200746B44200D93446E5
:10266000A0B2A96888478046002000F09DFE814600
:10267000A2B24946404600F081FCA1B2002000F021
:10268000AFFE2888001B288068882044688030209E
:10269000C04908800002BE49088000BFBE490968E1
:1026A0000F72BDE8F08770B50226BB480068447819
:1026B000B9480068007810F07F0F44D1092C03D18D
:1026C000FFF75DFD06465FE0052C14D1B2480068B7
:1026D000C0787F280BDCB0480068807838B9AE48F5
:1026E0000068808818B9AC480068807A08B108256D
:1026F00065E0002648E0032C0ED1A7480068C078AA
:10270000012807D1A4480068808818B9FFF7F7FEB0
:10271000064639E0022637E0012C35D19E48006894
:10272000C07801280DD19C480068808848B99A4833
:102730000068407A10F0200F03D0FFF7F2FD064644
:1027400022E0022620E094480068007800F07F0034
:10275000012805D10B2C17D1FFF740FD064613E0E9
:102760008D480068007800F07F0002280BD1012C12
:1027700003D1FFF7D6FD064606E0032C04D1FFF790
:102780006AFE064600E002264EB1E0B2864A1268B2
:10279000516988470646032E01D109250FE00EB185
:1027A00008250CE0062500217C48006880B2801CCA
:1027B0007B4A42F8101030207649088000BF7649E5
:1027C00009680D7270BD2DE9F05F734800684578A7
:1027D0000027BA46062D1AD16F480068007810F01D
:1027E0007F0F13D16C4909688878012803D16E499D
:1027F0000968CF690AE0022803D16B4909680F6AAA
:1028000004E0032802D1684909684F6A97E0002D67
:1028100065D1614800684088002860D15E48006842
:10282000C08802285BD15C4800680079002856D136
:1028300059480068007810F07F0F06D156480068AC
:10284000808810B9AFF20B6779E0534800680078D0
:1028500000F07F00012811D14F4909684879524999
:1028600009688A6900219047002868D14A480068B1
:10287000807A002863D0AFF23B6760E0464800688A
:10288000007800F07F00022859D143480068407961
:1028900000F00F0640480068407900F070093E489B
:1028A0000068407910F0800F06D03C48503850F84E
:1028B000260000F0300805E03848503850F826006F
:1028C00000F4405839480078B04238D9B9F1000FC7
:1028D00035D1B8F1000F32D0AFF29F672FE0082D4D
:1028E00008D12D480068007810F07F0F27D1AFF293
:1028F000937724E00A2D22D127480068007800F061
:102900007F0001281BD124480068807AB8B1224892
:102910000068408898B920480068007978B91E4856
:102920000068C08801280AD11B49096848791E49F6
:1029300009688A690021904708B9AFF2817757B1D9
:1029400015480068A0F812A01348006887610020AD
:10295000B84700240FE0104A12685078124A1268F3
:10296000116988470446032C05D109200A490968E2
:102970000872BDE8F09F08480068008AA0F57F4112
:10298000FF3915D10920044909680872F1E70000F0
:102990001C0600201E0600200C060020505C004093
:1029A00000600040040600201006002044050020BE
:1029B000022C03D09C480068008A20B908209A495C
:1029C00009680872D5E798480068007810F0800F11
:1029D0003BD095480068B0F806B093480068008A7C
:1029E000584504D990490968A1F810B023E08E48F1
:1029F0000068008A8C490968C98888421BDA8A48BD
:102A00000068008A8949096891F82C10884203DA25
:102A10000020874908700EE083480068008A8349D7
:102A2000096891F82C1090FBF1F201FB120010B92B
:102A300001207F4908707D48006890F82C107A4882
:102A400000688182FFF7DCFD06E003207649096813
:102A5000087200037749088000BF8AE710B57648FE
:102A600090F82C10002000F0DDFC6F480068007A20
:102A7000082805D140026F49088010206F4908805E
:102A800069480068007A092801D1012010BD0020A2
:102A9000FCE738B501246A48006880B2001D694926
:102AA00031F8100080B201EB400000905E480068F1
:102AB000007A092832D0009800785B4909680870CC
:102AC0000098401C009000980078574909684870A9
:102AD0000098401C0090009800EB44000090009982
:102AE00031F8020B009100F03BFE4F490968488025
:102AF000009800EB44000090009931F8020B00911F
:102B000000F02EFE484909688880009800EB4400D8
:102B100000900098008844490968C8800120424913
:102B20000968087240480068C08810B9FFF7BBFD0B
:102B300001E0FFF748FEFFF791FF38BD30B50146D1
:102B4000414B1A78002012E0C3B23D4C503C54F87F
:102B5000233048F68F74234048F280042343C4B2E4
:102B60002343C4B2364D503D45F82430401C9042BA
:102B7000EAD341F08003324C241F236030BD10B5EE
:102B800029480068047A022C01D0042C05D1FFF7F3
:102B900037FD25480068047A1CE0062C19D122482C
:102BA0000068407805280ED11F480068007810F0B2
:102BB0007F0F08D11C490968C878FFF7BFFF234978
:102BC0000968086A804719490968886880470824A5
:102BD00000E00824144909680C72FFF73FFF10BD9C
:102BE00010B511480068047A022C01D0042C01D1E0
:102BF000082412E0032C01D0052C05D1FFF79EFC20
:102C000009480068047A08E0072C05D107490968DB
:102C1000C8688047082400E00824034909680C724A
:102C2000FFF71CFF10BD70470C06002010060020A7
:102C3000040600201C060020480500201E06002077
:102C4000505C004000600040440500201806002051
:102C500010B508480849086002200968087207484A
:102C60000749086007480849086005490968086875
:102C7000804710BD900E00200C0600204805002063
:102C800010060020780500201806002010B500244A
:102C90000BE1B348008800F00F00B2490870084605
:102CA000007800287ED1B0480068B0490880084606
:102CB000008800F03000AE490880AC48008800F47D
:102CC0004050AA490880A84909684BF6BF7201EA3A
:102CD000020080F4005080F0200040F4004141F0F8
:102CE0008001A14A11609E48008810F0100F32D177
:102CF0001046006848F60F71084011460860FFF75B
:102D00003EFF994909684BF6BF7201EA02009749F4
:102D1000098811F4805F01D080F4805093490988BC
:102D200011F4005F01D080F400509149098811F03E
:102D3000100F01D080F010008D49098811F0200F8C
:102D400001D080F0200081B241F4004141F08001C7
:102D5000854A116010BD8448006884B214F4006F85
:102D600036D081480068C0F30E0048F68F710840E5
:102D70007D490860FFF78DFE7B4909684BF6BF72FD
:102D800001EA02007949098811F4805F01D080F4DA
:102D900080507649098811F4005F01D080F400501A
:102DA000734900E04CE0098811F0100F01D080F069
:102DB00010006F49098811F0200F01D080F0200029
:102DC00081B241F4004141F08001674A1160C1E7DE
:102DD00014F4004F69D064480068C0F30E0048F650
:102DE0008F71084060490860FFF7FAFE5E49096884
:102DF0004BF6BF7201EA02005C49098811F4805F5A
:102E000001D080F480505949098811F4005F01D045
:102E100080F400505649098811F0100F01D080F05D
:102E200010005349098811F0200F01D080F02000D4
:102E300081B241F4004141F080014B4A116089E7C1
:102E400048480078484951F8200084B214F4004FF3
:102E500014D04448007851F82000C0F30E0048F622
:102E60008F7108403F4909783F4A42F821003D49A7
:102E70000978491E3F4A52F82100804714F0800F1C
:102E800013D038480078384951F8200048F60F71BF
:102E9000084034490978344A42F821003149097818
:102EA000491E354A52F8210080472F4844300068B7
:102EB00080B22B49088010F4004F7FF4EAAE00BFC7
:102EC00048E710B5002440E047F6FF70264944313A
:102ED00008602348008800F00F0022490870084667
:102EE0000078214951F8200084B214F4004F15D025
:102EF0001C48007851F82000C0F30E0048F68F718E
:102F0000084018490978184A42F8210015490978FB
:102F1000491E184A52F82100804716E014F0800F2D
:102F200013D010480078104951F8200048F60F716E
:102F300008400C4909780C4A42F8210009490978EF
:102F4000491E0D4A52F82100804707484430006866
:102F500080B20349088010F4004FB5D110BD0000C5
:102F60003405002008060020005C00401C060020FC
:102F70001E06002018050020FC040020F0B51446B1
:102F800004F1010C4FEA6C07DFF848C00CEB410379
:102F90003D460AE00678401C90F800C046EA0C2244
:102FA00023F8022B9B1C401C6D1E002DF2D1F0BD9E
:102FB000F0B5561C7510074E06EB41042B4605E094
:102FC00034F8047B20F8017B401C5B1E002BF7D1FA
:102FD000F0BD000000600040F94908607047F84803
:102FE000006880B27047F649091D08607047F448D0
:102FF000001D006880B27047F1480830006880B258
:103000007047EF490C3108607047ED480C3000689C
:1030100080B270474FF6F8710140E94A10321160F2
:103020007047E7481030006880B27047E44A403A81
:1030300042F8201070470146E148403850F821001E
:1030400080B27047DE4A403A52F8202048F68F138B
:103050001A400A43DA4B403B43F8202070470146B0
:10306000D748403850F8210000F4C060704710B5D0
:10307000D34B403B53F8203048F6BF7403EA0402B8
:1030800011F0100F01D082F0100211F0200F01D0CA
:1030900082F0200242F4004343F08003C84C403CDD
:1030A00044F8203010BD10B5C54B403B53F82030DC
:1030B0004BF68F7403EA040211F4805F01D082F4AE
:1030C000805211F4005F01D082F4005242F40043B8
:1030D00043F08003BA4C403C44F8203010BD10B59A
:1030E00002460B461046FFF7A6FF0446012B06D109
:1030F00024F48050B249403941F8220007E0022B05
:1031000005D124F01000AE49403941F8220010BD2D
:103110000146AB48403850F8210000F030007047BD
:103120000146A748403850F8210000F4405070474D
:10313000A34A403A52F8202048F6BF7302EA03013E
:1031400081F0100181F0200141F4004242F0800240
:103150009B4B403B43F820207047994A403A52F835
:1031600020204BF68F7302EA030181F4805181F431
:10317000005141F4004242F08002914B403B43F841
:10318000202070478E49403951F8201041F4807159
:1031900048F68F72114048F280021143884A403A43
:1031A00042F8201070478649403951F8201048F6FF
:1031B0008F62114048F280021143814A403A42F83E
:1031C000201070477E49403951F8201048F68F6230
:1031D000114048F280021143794A403A42F82010E7
:1031E00070477749403951F8201041F4807148F612
:1031F0008F72114048F280021143714A403A42F8FE
:10320000201070476E49403951F8201041F4807108
:1032100048F68F72114048F280021143684A403AE2
:1032200042F8201070476649403951F8201048F69E
:103230008F62114048F280021143614A403A42F8DD
:103240002010704701465E48403850F8210000F0D9
:103250003000102801D1012070470020FCE7014612
:103260005748403850F8210000F44050B0F5805FD6
:1032700001D1012070470020FCE75149403951F845
:103280002010C1F30E0148F68F7211404C4A403AAB
:1032900042F8201070474A49403951F8201048F64A
:1032A0000F721140464A403A42F820107047444994
:1032B000403951F8201048F68F7211404CF28002CC
:1032C00011433F4A403A42F8201070473C49403988
:1032D00051F8201048F68F72114048F2C002114395
:1032E000374A403A42F8201070473549403951F882
:1032F000201011F4804F0DD03149403951F8201081
:1033000048F68F7211404CF2800211432C4A403A29
:1033100042F8201070472A49403951F8201011F026
:10332000400F0DD02649403951F8201048F68F72D1
:10333000114048F2C0021143214A403A42F820109D
:1033400070471F4A403A52F8202048F68F731A40BF
:1033500048F280031A430A43194B403B43F82020AC
:10336000704701461648403850F8210000F00F0021
:10337000704710B54A105300114A1032126892B2C9
:1033800002EBC0020F4C44F8123010BD10B54A10C9
:1033900053000B4A1032126892B202EBC002121DA7
:1033A000084C44F8123010BD014605481030006842
:1033B00080B200EBC100034A32F8100080B27047BF
:1033C000405C0040006000400146E848006880B270
:1033D00000EBC100001DE64A32F8100080B27047D1
:1033E000E24A126892B202EBC002921CE04B43F830
:1033F0001210704702463E290BDD481111F01F0FD5
:1034000001D1431E98B24FF4004343EA8023136076
:1034100007E0481011F0010F01D0431C98B283025D
:103420001360704710B50246D048006880B200EBC8
:10343000C200801DCE4C04EB40033E290BDD481139
:1034400011F01F0F01D1441EA0B24FF4004444EA12
:1034500080241C6007E0481011F0010F01D0441CCB
:10346000A0B284021C6010BD0146C048006880B252
:1034700000EBC100801CBE4A32F81000C0F3090006
:1034800070470146B948006880B200EBC100801D5A
:10349000B74A32F81000C0F30900704730B54B103E
:1034A0005C00B24B1B689BB203EBC003B04D45F808
:1034B000134053105C00AD4B1B689BB203EBC00381
:1034C0001B1D45F8134030BD10B54A105300A74AE4
:1034D000126892B202EBC002A54C44F8123010BD43
:1034E00010B54A105300A14A126892B202EBC00212
:1034F000121D9F4C44F8123010BD01469B480068D5
:1035000080B200EBC1009A4A32F8100080B27047D6
:1035100001469648006880B200EBC100001D944A45
:1035200032F8100080B2704730B50B46012B1FD126
:103530008E49096889B201EBC001891C8C4D05EBED
:1035400041043E2A0BDD511112F01F0F01D14D1E17
:10355000A9B24FF4004545EA8125256007E05110E6
:1035600012F0010F01D04D1CA9B28D0225600AE0B6
:10357000022B08D17D49096889B201EBC001891C81
:103580007B4C44F81120012B1FD17849096889B27E
:1035900001EBC001891D764D05EB41043E2A0BDD90
:1035A000511112F01F0F01D14D1EA9B24FF4004569
:1035B00045EA8125256007E0511012F0010F01D086
:1035C0004D1CA9B28D0225600AE0022B08D1674983
:1035D000096889B201EBC001891D654C44F81120CE
:1035E00030BD30B5034601291FD16048006880B264
:1035F00000EBC300801C5E4D05EB40043E2A0BDD52
:10360000501112F01F0F01D1451EA8B24FF4004512
:1036100045EA8025256007E0501012F0010F01D027
:10362000451CA8B2850225600AE0022908D14F484E
:10363000006880B200EBC300801C4D4C44F81020A1
:1036400030BD30B5034601291FD14848006880B21B
:1036500000EBC300801D464D05EB40043E2A0BDD08
:10366000501112F01F0F01D1451EA8B24FF40045B2
:1036700045EA8025256007E0501012F0010F01D0C7
:10368000451CA8B2850225600AE0022908D1374806
:10369000006880B200EBC300801D354C44F8102058
:1036A00030BD01463148006880B200EBC100801C8B
:1036B0002F4A32F81000C0F30900704701462B482A
:1036C000006880B200EBC100801D294A32F810006A
:1036D000C0F30900704701462448006880B200EB3F
:1036E000C100801D224A32F8100010F47C4F01D036
:1036F000012070471D48006880B200EBC100801CAB
:103700001B4A32F810008005800D01D00220F0E73E
:103710000020EEE701290ED1144A503A52F8202039
:1037200048F68F731A4048F2C0031A430F4B503BC0
:1037300043F820200FE002290DD10C4A503A52F8EC
:10374000202048F68F731A404CF280031A43074B2F
:10375000503B43F820207047024641EA0220704760
:103760000146CAB20B1243EA02207047505C004087
:103770000060004000201D4908604FF43F401C4994
:103780000880084600881949091F08600020704712
:103790002DE9F04104460E46154604F07F00FFF780
:1037A00003FE0746AAB239463046FFF7E7FBA9B247
:1037B00004F07F00FFF714FE0020BDE8F0812DE942
:1037C000F04104460E46002504F07F00FFF759FE45
:1037D000054604F07F00FFF7F7FD07462A46394605
:1037E0003046FFF7E5FB2846BDE8F081445C004029
:1037F000160600204FF0000200B513469446964688
:10380000203922BFA0E80C50A0E80C50B1F12001F3
:10381000BFF4F7AF090728BFA0E80C5048BF0CC0A1
:103820005DF804EB890028BF40F8042B08BF7047FF
:1038300048BF20F8022B11F0804F18BF00F8012B71
:103840007047704770477047754600F029F8AE46DC
:1038500005006946534620F00700854618B020B59C
:10386000FEF76AFCBDE820404FF000064FF000076D
:103870004FF000084FF0000B21F00701AC46ACE818
:10388000C009ACE8C009ACE8C009ACE8C0098D4685
:1038900070470446AFF300802046FCF7B0FC000000
:1038A00000487047AC0E002001491820ABBEFEE76F
:1038B00026000200704712010002020000401413AB
:1038C000210500020102030109024300020100C0B8
:1038D0003209040000010202010005240010010564
:1038E00024010001042402020524060001070582C8
:1038F000030800FF09040100020A00000007050395
:10390000024000000705810240000004030904266C
:1039100003530054004D006900630072006F00659E
:10392000006C0065006300740072006F006E006937
:1039300000630073002C03CC517A663575505B2010
:10394000005600690072007400750061006C002070
:103950000043004F004D00200050006F00720074C3
:10396000000000008439000800000020200600004C
:103970006C010008703C000820060020F00E0000DA
:10398000C80100080118141A03531254124D1233BF
:1039900002113212013A02043A03043A04043A05CD
:1039A000043A06043A07043A08043A09043A0A04B5
:1039B0003A0B043A0C043A0D043A0E043A0F043A56
:1039C00010043A11043A12043A13043A14043A1552
:1039D000043A16043A17043A18043A19043A1A0435
:1039E0003A1B043A1C043A1D043A1E043A1F043AD6
:1039F00020043A21043A22043A23043A24043A25C2
:103A0000043A26043A27043A28043A29043A2A04B4
:103A10003A2B043A2C043A2D043A2E043A2F043A55
:103A200030043A31043A32043A33043A34043A3531
:103A3000043A36043A37043A38043A39043A3A0434
:103A40003A3B043A3C043A3D043A3E043A3F043AD5
:103A500040043A41043A42043A43043A44043A45A1
:103A6000043A46043A47043A48043A49043A4A04B4
:103A70003A4B043A4C043A4D043A4E043A4F043A55
:103A800050043A51043A52043A53043A54043A5511
:103A9000043A56043A57043A58043A59043A5A0434
:103AA0003A5B043A5C043A5D043A5E043A5F043AD5
:103AB00060043A61043A62043A63043A64041A0105
:103AC000023A02023A03023A04023A05023A0602B4
:103AD0003A07023A08023A09023A0A023A0B023A53
:103AE0000C023A0D023A0E023A0F023A10023A1153
:103AF000023A12023A13023A14023A15023A160234
:103B00003A17023A18023A19023A1A023A1B023AD2
:103B10001C023A1D023A1E023A1F023A20023A21C2
:103B2000023A22023A23023A24023A25023A2602B3
:103B30003A27023A28023A29023A2A023A2B023A52
:103B40002C023A2D023A2E023A2F023A30023A3132
:103B5000023A32023A33023A34023A35023A360233
:103B60003A37023A38023A39023A3A023A3B023AD2
:103B70003C023A3D023A3E023A3F023A40023A41A2
:103B8000023A42023A43023A44023A45023A4602B3
:103B90003A47023A48023A49023A4A023A4B023A52
:103BA0004C023A4D023A4E023A4F023A50023A5112
:103BB000023A52023A53023A54023A55023A560233
:103BC0003A57023A58023A59023A5A023A5B023AD2
:103BD0005C023A5D023A5E023A5F023A60023A6182
:103BE000023A62023A63021A64020120137D070C52
:103BF0001C08272C040B105109149133C201120820
:103C00001A040713210C1B08430413310D1B08472A
:103C1000041A71041AC70413270E1B08EB081AF9BB
:103C2000041A070C41324029482A1B200915781A2A
:103C3000291C13B6383308121AC8083243130B393B
:103C40003308041A0F0832261A3508322C2218734A
:103C5000201A2992A12D010203040428080607084E
:103C6000090204067E2BA24A43791E291A011C0070
:0400000508000131BD
:00000001FF
